:020000040800F2
:10000000100700209901000853150008E9130008A3
:10001000511500084F060008E51A0008000000000E
:10002000000000000000000000000000571500085C
:10003000510600080000000055150008751600085C
:10004000B3010008B3010008B3010008B3010008C0
:10005000B3010008B3010008B3010008B3010008B0
:10006000B3010008B3010008B3010008B3010008A0
:10007000B3010008B3010008B3010008B301000890
:10008000B3010008B3010008B3010008B301000880
:10009000B3010008B3010008B3010008B301000870
:1000A000B3010008B3010008B3010008B301000860
:1000B000B3010008B3010008B3010008B301000850
:1000C000B3010008B3010008B3010008B301000840
:1000D000B3010008B3010008B3010008B301000830
:1000E000B3010008B3010008B301000800F002F8F2
:1000F00000F042F80AA090E8000C82448344AAF180
:100100000107DA4501D100F037F8AFF2090EBAE87D
:100110000F0013F0010F18BFFB1A43F0010318473B
:10012000A41B0000C41B0000103A24BF78C878C18B
:10013000FAD8520724BF30C830C144BF04680C60ED
:10014000704700000023002400250026103A28BF35
:1001500078C1FBD8520728BF30C148BF0B60704739
:10016000782900F09D80632900F02B8200207047E1
:100170001FB51FBD10B510BD00F02FFA1146FFF7D7
:10018000F7FF01F0C7FC00F04DFA03B4FFF7F2FFF0
:1001900003BC00F055FA00000948804709480047B1
:1001A000FEE7FEE7FEE7FEE7FEE7FEE7FEE7FEE727
:1001B000FEE7FEE704480549054A064B7047000084
:1001C000D7160008ED0000081001002010070020DD
:1001D00010030020100300200FB41CB5074B06AA23
:1001E0007B4469460090059800F0C9F900206946F3
:1001F00000F0D8F91CBC5DF814FB0000C10300003E
:1002000070B5044685690068C10601D5302600E056
:100210002026C00707D070BDD4E9012130469047A1
:10022000206A401C20626D1EF6D570BD70B5044674
:1002300085690078C00707D170BDD4E9012120206D
:100240009047206A401C20626D1EF6D570BD70B5C7
:100250000C460546012A05D02878800600D5EA69B3
:10026000002302E0012305E05B1C934202D2E05C24
:100270000028F9D1A869E618C01AA861286A1844AC
:1002800028622846FFF7BCFF04E0D5E9012114F8F5
:10029000010B9047B442F8D32846FFF7C7FF70BD63
:1002A00070B504460D4621461068AFF300802188E2
:1002B000090502D50F4A7A4402E00E4A7A440E320A
:1002C000002104F1240305E000F00F060009965D0B
:1002D0005E54491C0028F7D120780023000704D57C
:1002E000702D02D009B1022311322046BDE87040C2
:1002F00000F0E7B8D01900002DE9F05F8946044608
:100300004FF0000ADFF824B1FB44C0F820A02046DB
:10031000E168884700287DD0252806D0D4E901214E
:100320009047206A401C2062F1E700255F46204686
:10033000E16888472028064607DB312E05D2B81928
:1003400010F8200C08B10543F1E7A80701D525F006
:100350000405C4F81CA00027C4F818A02A2E09D050
:10036000304601F0D0FB38B304EB8708303EC8F8C4
:10037000186019E059F8041B204604EB87029161CC
:10038000E1688847012F064618D1E069002820DA85
:1003900025F020051DE0D8F8180000EB800006EBE2
:1003A00040003038C8F818002046E1688847064603
:1003B00001F0A9FB0028EED1012F0AD02E2E08D182
:1003C0002046E16888477F1C0646022F45F020053D
:1003D000C4DBA069002803DA404245F00105A061B2
:1003E000E80701D025F01005A6B1A6F141001928B3
:1003F00002D8203645F400654A463146204625603D
:100400004D46FFF7ADFE60B1012807D0ED1D25F088
:10041000070000E007E000F1080978E705F10409AA
:1004200075E730467AE7206ABDE8F09FA61900001C
:1004300010B5431C02E010F8011B71B18107FAD11D
:100440004FF0013202C88C1A8C4314EAC211F9D061
:10045000C01A0A0603D0C01E10BDC01A10BD0A047F
:1004600001D0801E10BD0902FCD0401E10BD4FF00F
:10047000000200B5134694469646203922BFA0E8F4
:100480000C50A0E80C50B1F12001BFF4F7AF090700
:1004900028BFA0E80C5048BF0CC05DF804EB8900F1
:1004A00028BF40F8042B08BF704748BF20F8022B34
:1004B00011F0804F18BF00F8012B7047704770474C
:1004C00070472DE9F0470D4699469246044600F1E3
:1004D00024080168880604D5E06921F01001216034
:1004E00000E00120A84201DD471B00E00027A169D0
:1004F0007A1902EB0900081AA0612078C00602D41C
:100500002046FFF77DFE002608E0D4E901211AF815
:1005100006009047206A401C761C20624E45F4DBA2
:100520002078C0060AD52046FFF76AFE06E0D4E927
:10053000012130209047206A401C2062381EA7F11C
:100540000107F4DC07E0D4E9012118F80500904721
:10055000206A401C2062281EA5F10105F3DC20461C
:10056000FFF764FE2078000602D50220BDE8F08780
:100570000120FBE701694A1C02610878704700B559
:100580008FB0CDE901310021059105497944CDE9CC
:10059000031011466846FFF7AFFE0FB000BD000024
:1005A000E5FFFFFF0A6802F8010B0A60704710B50B
:1005B000436913B1AFF3008001E0FFF748FE01206B
:1005C00010BD127800F124010A7000224A70012245
:1005D000EDE711684FF0FF32E9E7754600F02CF8BF
:1005E000AE4605006946534620F00700854618B020
:1005F00020B5FFF7DFFDBDE820404FF000064FF0CB
:1006000000074FF000084FF0000B21F00701AC4647
:10061000ACE8C009ACE8C009ACE8C009ACE8C00966
:100620008D46704710B50446AFF300802046BDE804
:100630001040FFF7AABD000000487047B00000203E
:1006400001491820ABBEFEE7260002007047FEE716
:10065000704772B6FEE7000070B5044600F004F97A
:100660000546601C02D004480078044400F0FCF801
:10067000401BA042FAD370BD100000202DE9F84FB6
:10068000DFF8B8910024A9F1040B23460F2709F1E4
:10069000040AABF1040EC9E00125A5402A40AA4294
:1006A0007DD1674ED1F804C0ACEB0608B44532D01A
:1006B00014DCBCF1030F3AD009DCBCF1000F2AD0E6
:1006C000BCF1010F1CD0BCF1020F31D11DE0BCF117
:1006D000110F17D0BCF1120F2AD119E0B8F5881FFD
:1006E00019D006DCB8F5803F15D0B8F5801F1FD1B2
:1006F00011E0B8F5001F0ED0B8F5041F18D10AE0BC
:10070000CB6815E0CB681B1D12E0CB6808330FE007
:10071000CB680C330CE08B682BB1012B4FF0080336
:1007200003D0456104E0042302E0056100E00023FA
:10073000FF2A01D8064601E000F104064FEA8405CD
:1007400001D9A5F12005D6F8008007FA05FC28EAB2
:100750000C0803FA05F548EA0508C6F800804D685C
:10076000ED0062D5374DAE6946F00106AE61AD6968
:1007700024F0030605F001050095334D06EB050C4A
:10078000DCF80850A607360F07FA06F825EA080530
:10079000DFF8B880404503D14FF0000817E044E08F
:1007A000DFF8AC80404502D14FF001080FE0DFF8E0
:1007B000A480404502D14FF0020808E0DFF898809D
:1007C000404502D14FF0030801E04FF0040808FA59
:1007D00006F848EA0508CCF808804D68D9F80060AA
:1007E000ED024D4601D5164300E096432E604D685C
:1007F000DAF80060AD02554601D5164300E0964395
:100800002E604D68DBF80060AD035D4601D51643F0
:1008100000E096432E604D68DEF80060ED037546FB
:1008200001D5164300E096432E60641C0D682A46ED
:10083000E5407FF431AFBDE8F88F000008040140C7
:1008400000001110001002400000014000080140AB
:10085000000C014000100140001401400AB1016188
:1008600070470904FBE700000148806870470000FA
:1008700010000020024881680278114481607047AE
:1008800010000020074810B5016841F01001016018
:10089000032000F067F80F2000F006F800F024F8BD
:1008A000002010BD0020024070B50D4D04464FF4ED
:1008B0007A712878B1FBF0F00A490968B1FBF0F0D1
:1008C00000F0CEFA48B9102C07D200222146501E63
:1008D00000F028F800206C6070BD012070BD0000A1
:1008E000100000201C0000200C4808B5816941F070
:1008F00001018161816901F001010091C16941F04B
:100900008051C161C06900F0805000900448416886
:1009100021F0E06141F00071416008BD001002402B
:1009200000000140F0B40E4B1B680C46C3F30223D9
:10093000C3F10705042D00D90425191D072901D28B
:10094000002300E0DB1E012606FA05F1491E2140C6
:1009500099409E40761E16403143F0BC01F0C3B86A
:100960000CED00E0064900F0070208684FF6FF03AF
:10097000184040EA0220034A104308607047000014
:100980000CED00E00000FA052DE9F0470F460500E8
:1009900061D0434E306800F00700B84209D2306899
:1009A00020F0070038433060306800F00700B8429C
:1009B00051D128683B4C810712D5400703D56068A8
:1009C00040F4E06060602878000703D5606840F478
:1009D000605060606068A96820F0F00008436060C3
:1009E0002878C00728D06868012810D0216802281C
:1009F00010D0890700292EDA616821F00301014334
:100A00006160FFF731FF804641F288390DE02168CF
:100A10008903EFE78901EDE7FFF726FFA0EB080167
:100A2000494502D90320BDE8F0876068696800F095
:100A30000C00B0EB810FEFD1306800F00700B84236
:100A40000BD9306820F0070038433060306800F080
:100A50000700B84201D00120E5E72878400705D516
:100A60006068E96820F4E060084360602878000767
:100A700006D56068296920F4605040EAC1006060D2
:100A800000F038F86168084AC1F30311515CC840AE
:100A90000649086006480068FFF706FF0020C2E725
:100AA0000020024000100240721C00081C000020C0
:100AB000140000200448054900684968044AC1F34D
:100AC0000221515CC84070471C0000200010024009
:100AD000821C00080448054900684968044AC1F3BB
:100AE000C221515CC84070471C0000200010024029
:100AF000821C00080E4A51680E4801F00C03042BBA
:100B000011D0082B0FD10C48C1F38343C903C05C3B
:100B10000AD55168084AC1F34041921E515C054A0A
:100B20005043B0FBF1F07047044948437047000060
:100B30000010024000127A00621C000800093D000B
:100B40002DE9F84F040070D02078C04DC00749D07F
:100B50006868C0F38100012807D06868C0F381008D
:100B6000022809D16868C00306D52868800339D5F2
:100B700060680028E7D035E06068B0F5803F0BD0B2
:100B800010B1B0F5A02F11D0286820F48030286073
:100B9000286820F4802002E0286840F48030286033
:100BA000606890B1FFF760FE06460AE0286840F4EE
:100BB00080202860F0E700BFFFF756FE801B642806
:100BC00073D828688003F7D50CE0FFF74DFE064682
:100BD00005E000BFFFF748FE801B6428F0D82868B6
:100BE0008003F7D420789A4E80074FF001094FF028
:100BF000000839D5686810F00C0F07D06868C0F39A
:100C00008100022809D16868C00306D428688007DB
:100C100014D52069012808D110E02069B0B1C6F8C8
:100C20000090FFF721FE074605E00AE1FFF71CFEF2
:100C3000C01B0228C4D828688007F7D528686169D6
:100C400020F0F80040EAC10028600DE0C6F80080FE
:100C5000FFF70AFE074604E0FFF706FEC01B022866
:100C600023D828688007F7D4207800072CD5794846
:100C7000A169D9B1C0F80090FFF7F6FD074604E07E
:100C8000FFF7F2FDC01B02280FD8686A8007F7D56E
:100C900071484FF4FA510068B0FBF1F0009000BFCA
:100CA0000098411E0091FAD20EE080E0C0F800806A
:100CB000FFF7DAFD074604E0FFF7D6FDC01B022868
:100CC00075D8686A8007F7D42078400760D5E8694E
:100CD0000027C00008D4E86940F08050E861E86966
:100CE000012700F0805000905C480168C90513D4CA
:100CF0000168834641F480710160FFF7B5FD8246CB
:100D000006E000BFFFF7B0FDA0EB0A0064284ED854
:100D1000DBF80000C005F5D5E06801280AD008B16D
:100D2000052813D0286A20F001002862286A20F0E4
:100D3000040002E0286A40F001002862E06841F205
:100D4000883B98B1FFF790FD82460BE0286A40F09F
:100D500004002862EEE700BFFFF786FDA0EB0A0162
:100D600059455AD8286A8007F6D50CE0FFF77CFD74
:100D7000824605E0FFF778FDA0EB0A0159454CD803
:100D8000286A8007F6D41FB1E86920F08050E86136
:100D9000E06988B36968C1F38101022944D002285F
:100DA000C6F8608004D0FFF75FFD044638E034E009
:100DB000FFF75AFD074604E0FFF756FDC01B022867
:100DC0002BD828688001F7D4206AB0F5803F05D180
:100DD0006868A16820F4003008436860D4E908011D
:100DE0000843696821F4741108436860C6F860908C
:100DF000FFF73AFD044606E025E000BFFFF734FDAB
:100E0000001B022809D828688001F7D51BE000BF25
:100E1000FFF72AFD001B022802D90320BDE8F88F46
:100E200028688001F4D40EE00128F7D06868226AAF
:100E300000F48031914204D1616A00F4701088425C
:100E400001D00120EAE70020E8E70000001002409E
:100E500000004242800442421C000020007000401A
:100E600010B5401EB0F1807F01D3012010BD4FF0BE
:100E7000E02460610F21601700F035FE0020A061C2
:100E800007202061002010BD70B590F83C20012A99
:100E900026D0012480F83C40022280F83D200368DF
:100EA0005A689D6822F070060A6832435A600D4BFA
:100EB00002689A4208D0B2F1804F05D00A4B9A429C
:100EC00002D00A4B9A4204D1496825F080031943A5
:100ED000916080F83D40002180F83C10084670BDCC
:100EE000022070BD002C01400004004000080040BA
:100EF00010B5040003D094F83D0010B107E00120C4
:100F000010BD002084F83C00204600F01FF80220AD
:100F100084F83D00211D206800F0DEFB012084F8EC
:100F2000460084F83E0084F83F0084F8400084F8CE
:100F3000410084F8420084F8430084F8440084F8B7
:100F4000450084F83D00002010BD000008B5006891
:100F5000B0F1804F08D10548C16941F00101C1617C
:100F6000C06900F00100009008BD000000100240C0
:100F700070B5044690F83C000025012817D00126E2
:100F800084F83C60022084F83D002068826822F0EA
:100F9000770222F47F4282600868502838D00DDC46
:100FA00020284FD005DC90B3102811D14AE0022050
:100FB00070BD302846D040280AD13BE060282FD0B1
:100FC00070280DD0B0F5805F03D0B0F5005F12D06F
:100FD000012584F83D60002084F83C00284670BD5F
:100FE000CB68D1E90121206800F0BFFB206881684F
:100FF00041F0770109E0CB68D1E90121206800F0D8
:10100000B4FB2068816841F480418160E1E719E028
:10101000CA684968206800F05DFC5021206806E03D
:10102000CA684968206800F066FC6021206800F00A
:10103000A6FBCEE7CA684968206800F04BFC402157
:101040002068F4E7226801461046F0E700B585B055
:10105000002100910191029103910068B0F1804F4D
:1010600011D10A48816941F00401816180696946B2
:1010700000F00400049008200090022001900390EA
:101080000348FFF7FBFA05B000BD00000010024066
:101090000008014070B5044690F83C0000260D465B
:1010A00001280FD0012084F83C006AB1042A1DD029
:1010B000082A2FD00C2A3FD00126002084F83C00BB
:1010C000304670BD022070BD206800F061FB2068D2
:1010D000816941F0080181612068816921F0040182
:1010E0008161206881692A69114311E0206800F05C
:1010F00077FB2068816941F4006181612068816922
:1011000021F480618161206881692A6941EA0221B4
:101110008161D2E7206800F08FFB2068C16941F04F
:101120000801C1612068C16921F00401C161206822
:10113000C1692A69114311E0206800F0A9FB206809
:10114000C16941F40061C1612068C16921F4806115
:10115000C1612068C1692A6941EA0221C161ACE725
:1011600010B5040003D094F83D0010B107E0012051
:1011700010BD002084F83C00204600F01EF802203C
:1011800084F83D00211D206800F0A6FA012084F8B3
:10119000460084F83E0084F83F0084F8400084F85C
:1011A000410084F8420084F8430084F8440084F845
:1011B000450084F83D00002010BD704710B504467E
:1011C000022249B104290ED0082913D094F8410015
:1011D000012816D0012010BD94F83E000128F9D155
:1011E00084F83E200FE094F83F000128F2D184F803
:1011F0003F2008E094F840000128EBD184F840201B
:1012000001E084F841200122206800F0A1FA0F4992
:101210002068884203D1426C42F400424264206854
:10122000884208D0B0F1804F05D00949884202D0E9
:101230000849884204D1816801F00701062903D0DA
:10124000016841F001010160002010BD002C014047
:10125000000400400008004070B5040004D094F879
:101260004100002510B106E0012070BD84F8405017
:10127000204600F023F8242084F841002068C1684B
:1012800021F40051C160204600F06EFB2068016926
:1012900021F4904101612068416921F02A014161F6
:1012A0002068C16841F40051C1606564202084F861
:1012B000410084F842006563002070BD30B585B000
:1012C0000024009401940294039400681449884215
:1012D00024D11448816941F480418161816901F41C
:1012E00080410491816941F00401816180690E4D62
:1012F00000F0040004904FF4007000900220019070
:101300000320039069462846FFF7B8F92815CDE970
:101310000004694628460294FFF7B0F905B030BDD5
:1013200000380140001002400008014090F84230AF
:10133000202B01D00220704721B11AB10023036392
:1013400000F06EBB012070472DE9F843044690F889
:101350004100984616460D46202802D00220BDE8DE
:10136000F88385B17EB100206064212084F84100BB
:10137000FFF77AFAA6848146E684A0682027B0F5B4
:10138000805F02D003E00120E9E7206910B12E461A
:1013900000250EE000260CE08021204600F05BFBDB
:1013A000A8B9C6B116F8010B21684860E08C401E50
:1013B000E084E08C4B464FF00002CDF8008000281E
:1013C000EAD14FF04001204600F045FB40B184F8DF
:1013D00041700320C3E735F8020BC0F30800E3E7D0
:1013E00084F841700020BAE7FEE70000F0B585B050
:1013F000002420480094019402940394816941F0F0
:1014000010018161816901F010010491816941F04D
:1014100020018161816901F020010491816941F01D
:10142000040181618069012200F00400124E55031D
:10143000049029463046FFF711FA104F0122072188
:101440003846FFF70BFA01200095CDE90104022090
:10145000039069463046FFF711F9072000901120EC
:10146000CDE901040320039069463846FFF706F9E9
:1014700005B0F0BD0010024000100140000801401E
:1014800010B58EB000240794089409940A940B9424
:101490001C2168460C94FEF7EAFF1E484FF080417D
:1014A00001604721C0E9011444F61F61C0E903143B
:1014B0008461FFF71DFD08B1FFF7CBF84FF48050B2
:1014C000079007A91348FFF753FD08B1FFF7C1F8CC
:1014D0001048FFF745FE08B1FFF7BBF80B940BA9C6
:1014E0000C480C94FFF7D0FC08B1FFF7B2F860206D
:1014F000CDE9000402940C22694606480494FFF7E3
:10150000C9FD08B1FFF7A5F80248FFF79FFD0EB02F
:1015100010BD0000200000200C4810B50A490160F1
:101520004FF416514160002181600C22C160C0E976
:1015300004128161C161FFF78FFE002803D0BDE86E
:101540001040FFF786B810BD003801406800002049
:10155000FEE7FEE77047704710B5FFF785F90E4BC1
:101560000246597900290FD0012903D00020022911
:101570000FD10AE09868101AFA2805D35A2000F013
:101580000DF8022058719A6010BD9968511AFA2915
:10159000FAD3587110BD000000000020B42800D913
:1015A000B4204FF47A714843B421B0FBF1F000F558
:1015B0007A7080B200F010B810B5064C607900283F
:1015C00007D18C20FFF7EAFF01206071FFF74CF98B
:1015D000A06010BD000000204FF47A71884202D351
:1015E0004900884200D908460149096808647047E3
:1015F00020000020002204210148FFF72FB900003D
:1016000000080140012211460148FFF727B90000F8
:1016100000080140002201210148FFF71FB9000026
:101620000008014010B5FFF71FF90B4CE17959B1E3
:10163000E168411A022906D3E060A07940B1FFF7C2
:10164000E1FF0020A07110BDBDE81040FFF7DABF38
:10165000FFF7E0FF0120F5E700000020044B20B178
:10166000012202211846FFF7F9B80022F9E700002D
:1016700000080140FFF7FEB830B58FB0282168465A
:10168000FEF7F5FE14210AA8FEF7F1FE0121080479
:10169000CDE900100024029402250491CDE9075001
:1016A0004FF4E01009906846FFF74AFA08B172B6A5
:1016B000FEE70F20CDE90A054FF48060CDE90C402C
:1016C00002210AA80E94FFF75FF9002801D072B634
:1016D000FEE70FB030BD7047F0B50268194B1A4CE9
:1016E0001A4D4FF08047984205D0B84203D0A0422F
:1016F00001D0A84203D122F070064A6832439842D2
:1017000005D0B84203D0A04201D0A84203D122F4B0
:101710004074CA6822434C6922F08002224302606E
:101720008A68C2620A688262984201D109690163CB
:10173000012141610169C90703D0016921F001015B
:101740000161F0BD002C0140000400400008004091
:1017500010B501F01F030121046A99408C43046213
:10176000016A9A401143016210BD10B5846842EAD3
:10177000032224F47F440A432243826010BD82681E
:1017800022F070020A4342F00701816070470000B6
:1017900030B5036A026A22F001020262426884697B
:1017A00024F073050C682C4323F002058B682B434F
:1017B0000A4DA8420BD123F00805CB6822F44072F1
:1017C0002B434D6923F0040315438A692A43426081
:1017D000846149684163036230BD0000002C014010
:1017E00030B5026A036A23F0100303624368846918
:1017F0000D6824F4E64444EA05248D6822F02002B2
:1018000042EA05120B4DA8420ED1CD6822F08002AB
:1018100042EA05124D6923F4406343EA85038D696A
:1018200022F0400243EA8503436084614968816392
:10183000026230BD002C014030B5036A026A22F416
:10184000807202624268C46923F4007324F0730555
:101850000C682C438D6843EA05230C4DA8420ED139
:10186000CD6823F4006343EA05234D6922F4405216
:1018700042EA05128D6923F4806342EA0512426050
:10188000C4614968C163036230BD0000002C01409F
:1018900030B5046A026A22F4805202624268C36967
:1018A0000D6823F4E64343EA05238D6824F40054CD
:1018B00044EA0534064DA84204D14D6922F4804221
:1018C00042EA85124260C36149680164046230BD26
:1018D000002C014010B5036A046A24F0010404627C
:1018E000846924F0F00444EA021423F00A020A4353
:1018F0008461026210BD10B5036A046A24F010040A
:101900000462846923F0A00324F4704444EA0232A0
:1019100043EA01118261016210BD01680C3151E896
:10192000002F22F4907241E80023002BF5D10168CA
:10193000143151E8002F22F0010241E80023002B6E
:10194000F5D1016B012909D101680C3151E8002F53
:1019500022F0100241E80023002BF5D1202180F86D
:10196000421000210163704770B5044600680169A8
:10197000E26821F44051114301612169A0680843E4
:10198000616908432168CA6841F20C639A430243C3
:10199000CA6020684169A26921F440711143416124
:1019A0001E492068884202D1FFF794F801E0FFF752
:1019B00081F800EBC00101EB001260686421800037
:1019C000B2FBF0F3B3FBF1F36FF018067343B2FB15
:1019D000F0F5B2FBF0F605EB8305322303EB0515BA
:1019E000B5FBF1F5B6FBF1F605F0F00505EB0615D4
:1019F000B2FBF0F6B2FBF0F0B0FBF1F06FF01802C2
:101A0000504306EB800003EB0010B0FBF1F02168BF
:101A100000F00F002844886070BD000000380140CD
:101A200081628285C28500214164222180F84210B2
:101A3000016921B10168CA6842F48072CA60016814
:101A40004A6942F001024A610068C16841F0200120
:101A5000C160002070472DE9F843984617460D46AF
:101A60000446089E24E0701C22D0FEF7FDFEA0EB89
:101A70000800B0421AD8CEB12068C168490717D50E
:101A8000802D15D0402D13D00168C94309070FD40C
:101A900001680025406800902046FFF73EFF0820BF
:101AA000606484F840500120BDE8F8830320FBE720
:101AB0002068006835EA000004D00020B842D2D087
:101AC0000020F1E70120F9E710B50446FEF7B0FC6D
:101AD000214682B2BDE8104064230148FFF734BCC0
:101AE00068000020FEE70907090E002804DB00F16A
:101AF000E02080F80014704700F00F0000F1E020B3
:101B000080F8141D704730380A2801D20120704730
:101B1000002070478AB0FEF7B5FEFFF7ADFDFFF776
:101B200065FCFFF7F9FCFFF7ABFC0C212948FFF738
:101B300045FB4FF4FA70FEF78FFD5A20FFF72EFD9C
:101B40004FF49670FEF788FDFFF75CFD0020FFF76D
:101B500085FDFFF74FFD204C0120E071FEF784FE6C
:101B6000E060012221461D48FFF7E0FB1CA0FFF7C3
:101B7000ABFF1FA0FFF7A8FF23A0FFF7A5FF0025DD
:101B8000FFF750FDFFF7E8FCE078A8B1E570207999
:101B9000202809D320797E2806D82379227921A10B
:101BA0006846FEF719FB04E0227924A16846FEF797
:101BB00013FB6846FFF788FF607810B16570FFF788
:101BC000FBFCA0780028DBD0A57021A0FFF77CFFEC
:101BD000D6E7000020000020000000206800002060
:101BE00053797374656D2052656164790D0A000044
:101BF000537465707065722052756E6E696E672ED3
:101C00002E2E0D0A0000000053656E642027522717
:101C100020746F207075736820736572766F0D0A7B
:101C2000000000005B525820425954455D20307836
:101C30002530325820272563270D0A005B52582093
:101C4000425954455D203078253032580D0A000045
:101C50005B4F4B5D2047455420520D0A00000000A9
:101C6000010202030405060708090A0B0C0D0E0FFA
:101C7000101000000000000000000102030406072D
:101C8000080900000000010203043031323334350A
:101C900036373839414243444546403058003031A8
:101CA00032333435363738396162636465664030C3
:101CB000780004000008000000000000000200019D
:101CC00000001000E41C00080000002020000000BC
:101CD00028010008041D000820000020F006000074
:101CE00044010008000000000000000100000000A6
:101CF00000000000010000001000000000000000D3
:041D000000127A0053
:04000005080000ED02
:00000001FF
